:100000000C9482020C949F020C949F020C949F0209
:100010000C949F020C949F020C949F020C949F02DC
:100020000C949F020C949F020C949F020C949F02CC
:100030000C949F020C949F020C949F020C949F02BC
:100040000C94A1020C949F020C949F020C949F02AA
:100050000C949F020C949F020C949F020C949F029C
:100060000C949F020C949F0234024903B9031302BB
:10007000EF02F001B1023B02E0043002D8022A0391
:100080003B04B8042703BE02DE02B802C7032904FA
:100090007F048E04650357036004AC03C304280285
:1000A000E402EC02F602C4022004110430034D0302
:1000B0001604000000D4300007004F626A656374C4
:1000C0004001002D000004006E756C6CD707D70747
:1000D000D707D707D707D707D707D707D707D70730
:1000E000D707D707D707D707D707D707D707D70720
:1000F000D707D707D707D707D707D707D707D70710
:10010000D707D707D707D707D707D707D707D707FF
:10011000D707D707D70764076407A0083906390649
:100120003906640757066B075A066E06A60665066B
:10013000650659077A065907890697068308A606B1
:100140004807A606BC069D08AF06D506AF0890086E
:100150005907C906E306EA06EB06F806C7080507CD
:10016000A6060C0713071C0723072C077207810735
:1001700092079F07AC07B907C607D207DF07010838
:100180000E0857061B089A06290836085608DF0885
:100190004906EA08ED0806090F091B092709BB01F2
:1001A00000009E010000AD01000109C402BB010076
:1001B00000BB0117020DEC0204F602000000010270
:1001C0003003BB0102040A57030C4D030B65030205
:1001D000AC03BB010203071604062004021104BB92
:1001E000010100BB010203086004058E04037F04C3
:1001F0000500013F24002F20596524003F25002FD2
:100200002059652500033F25002FDF4765250003A2
:1002100044FC0108020038484027B400602B270244
:1002200040415F48441802680300004B66190168AA
:10023000020000680500014B525C5B050100093FAC
:1002400044004B00596544003F440049005965444F
:10025000003F45004B00596545003F4500490059A6
:100260006545003F6E00490059656E003F7A004CBD
:100270000059657A003F7A004B0059657A003F7A51
:1002800000490059657A003F7A002F070059657AC6
:10029000004965C1004965C5002F1065C4003FC114
:1002A000004E005965C1003FC1004D005965C100B5
:1002B0006802000057280268040001280168040051
:1002C000012811680600023FC0002F204725D302F5
:1002D00044C7025365C60068040001281068040082
:1002E00001280168040001283E02002CFF5C09037C
:1002F00000004317012C060101283C04002F08428E
:1003000026032831293E0200283A1403293E020020
:100310003144040329293E02003E02006402002801
:100320002F0858010D6368FF5B09040001280E5B6C
:10033000060101280B3961C20137023DB80058019E
:100340000B5358010C5800022C03000168060002F0
:1003500028531258010B2C0800022861D201375390
:100360001358010B2C0B0302283E00002E293E00DF
:10037000002E4662DF0132493B495D04552A2E3387
:10038000A5032A5555283E00002E339603283E002B
:10039000005534449F03293E000051045004343674
:1003A0005003447C03282A640000282C06000161C5
:1003B000D20137283E00000C2C05000128012849F5
:1003C00062DF01640000680902013DC40031524A45
:1003D0005226D70352563061C20137022F30522FB6
:1003E0000A5A5E4558010A2958010B580002315239
:1003F0002F0A4F305225D703542B0F0461C2013707
:10040000023DC10058010B2958010B5800022C294C
:100410002C040001282C060002283E000053345B07
:10042000040001283E00002E5B0900022801284B31
:1004300062DF013749533664000068090102280170
:1004400028292E62DF01640000494A54292E335FB7
:1004500004283E000054295434365002444B0468AA
:10046000070102532F0A357204283E00002F0D5851
:100470000109283E000053580109447E04326806F1
:1004800000022829580105282F0A58010868080188
:1004900002292D9F04283DC60058010544B7044990
:1004A0004A542958000633B70428295458010758DC
:1004B0000108500244A104680600022801282964AA
:1004C0000000680601010706084949280544DB04C5
:1004D00031431501295800025801030458000468EB
:1004E00006000061E3013761A601370A0D671501B7
:1004F00043150167110161A201370F67130168BB42
:100500000102000011241FBECFEFD8E0DEBFCDBF37
:1005100011E0A0E0B1E0ECECF4E102C005900D9236
:10052000A030B107D9F727E0A0E0B1E001C01D92EB
:10053000A93BB207E1F70E94FF090C94070A0C944B
:1005400000001F920F920FB60F9211248F939F936A
:10055000AF93BF938091000190910101A09102019E
:10056000B09103010196A11DB11D809300019093EC
:100570000101A0930201B0930301BF91AF919F913C
:100580008F910F900FBE0F901F9018952FB7F89472
:100590008091000190910101A0910201B0910301AD
:1005A0002FBFBC01CD0127E0660F771F881F991F61
:1005B0002A95D1F72DE730E040E050E00E94420A52
:1005C000CA01B9010895CF92DF92EF92FF920F9383
:1005D0001F93CF93DF93E0910E01F0910F01809173
:1005E0000A0190910B01408151814F5F5F4F440F91
:1005F000551F4E0F5F1F481B590B60E070E00E94B3
:10060000130AC1E1D1E0899199910E94750981E0B5
:10061000C931D807C1F780910601909107010E9466
:100620007509CFE1D1E0CE010E946F097C01892BD1
:1006300009F1CE010E946709892BC9F000E010E0A2
:10064000C80105968E159F0590F4FE01E00FF11F7D
:10065000C080D180C6010E947509892B29F0CC1673
:10066000DD0610F4E601DFCF0F5F1F4FE9CFCE0D9F
:10067000DF1DD9CF0FE111E0C8010E946F09EC0125
:10068000892B11F1C8010E946709892BB1F4E80197
:10069000CE010E946F097C01892B39F4C01BD10B5C
:1006A000F80134971382128208C0CE010E946709B4
:1006B000892BA1F7CE0DDF1DEBCFF8013497D18345
:1006C000C0830C0F1D1FD8CFDF91CF911F910F91C9
:1006D000FF90EF90DF90CF900895AF92BF92CF92AE
:1006E000DF92FF920F931F93CF93DF935C018B01F7
:1006F000F12C6B0184E0C80ED11CC6010E949C093C
:10070000EC01009761F0A80160E070E00E94130A1C
:10071000FE013497B382A282D182C0820DC0FF2035
:1007200031F0B80180E490E00E94A70305C00E9468
:10073000E302FF24F394E1CFCE01DF91CF911F912B
:100740000F91FF90DF90CF90BF90AF9008950895E4
:100750000F931F93CF93DF93FC0134972281338152
:1007600041E08B31940720F0E7E0823B9E0770F078
:100770002BEB31E00BC04F5F5F4FF801A491B0E06D
:100780004A175B0774F0F901259134912115310561
:10079000D9F0E901249640E050E089010D5F1F4F38
:1007A000ECCFFE01A491B0E02396A617B70719F786
:1007B000CA01880F991FFC01E40FF51F3596E20F5F
:1007C000F31F8591949107C0892B19F080E090E088
:1007D000C7CF80E090E0DF91CF911F910F910895F6
:1007E000E8E0F1E0828193819C012E5F3F4F3383EB
:1007F00022830895880F991F20910C0130910D01DB
:10080000820F931F0895880F991FE0910C01F091BA
:100810000D01E80FF91FDB018D919C91918380837D
:1008200008950E94F0032091040130910501FC011C
:100830003183208308950E94F003209106013091B6
:100840000701FC01318320830895E8E0F1E0828113
:10085000938102979383828308950E942504FC016B
:1008600080819181909305018093040108950E94F5
:100870002504FC01808191819093070180930601FA
:1008800008950E942504FC018081918108950E94B1
:100890002504FC01808191810895E8E0F1E08281E6
:1008A00093810497938382830895EF92FF920F932D
:1008B0001F93CF93DF930E94C6057C010E941B0407
:1008C000F70105911491B801685F7F4F82ED91E0C7
:1008D0000E946D03EC01009791F00696998388833E
:1008E00098012A5F3F4F3B832A83A8014E5F5F4FE9
:1008F000B7010E940A0AD0930701C0930601DF9155
:10090000CF911F910F91FF90EF900895CF93DF93B8
:10091000EC010E94C6051C161D0624F0CD2B21F407
:1009200022E003C021E001C024E0022E000C330BC2
:100930004091B80750E024233523232B21F09093D6
:10094000090180930801DF91CF910C943704CF9374
:10095000DF93C0910601D0910701209729F00E94F2
:10096000AF058C0F9D1F02C080E090E0DF91CF911A
:100970000895CF92DF92EF92FF920F931F93CF9340
:10098000DF93FC01D490FFEFDF120EC00196FC0153
:1009900025913491F901DF91CF911F910F91FF9033
:1009A000EF90DF90CF900994EC01FC013296E49037
:1009B0000E941B04F12CC701880F991F00910A01A6
:1009C00010910B01081B190BE0910E01F0910F0122
:1009D000208131812F5F3F4F220F331F2E0F3F1F8A
:1009E0008D2D90E0AC01440F551F400F511F421751
:1009F000530708F446C002960E94FB096C01E0917F
:100A00000E01F0910F0180910A0190910B0140813C
:100A100051814F5F5F4F440F551F4E0F5F1F481BA3
:100A2000590B60E070E00E94130AF6011383028301
:100A300080910E0190910F0195838483D8013696A1
:100A400080E090E03E2F2F2F8E159F0534F44D91BE
:100A50005D91419351930196F7CFD0920F01C092CF
:100A60000E01E0911701F0911801D586C486032F7D
:100A7000122FEE0CFF1CE00EF11EF0920B01E09223
:100A80000A01FE013196E491F0E03196EE0FFF1F6E
:100A900080910A0190910B01E80FF91FF0930B016F
:100AA000E0930A01329780910C0190910D0191839E
:100AB00080838091080190910901909307018093B0
:100AC000060110930D0100930C012396D0930901A8
:100AD000C0930801DF91CF911F910F91FF90EF908C
:100AE000DF90CF90089580910A0190910B01E091E1
:100AF0000E01F0910F019F012A5F3F4F40910C01C1
:100B000050910D014217530791F4228133813093A4
:100B10000D0120930C012481358130930F01209326
:100B20000E01E0911701F09118013587248720917B
:100B30000C0130910D0130930B0120930A01FC014F
:100B40003297208131813093090120930801329737
:100B50008081918190930D0180930C010895A8E00C
:100B6000B1E02D913C911197F901859194912E5FFF
:100B70003F4F2D933C930895A8E0B1E0ED91FC9197
:100B8000119784913196ED93FC930895CF93DF9361
:100B9000C8E0D1E028813981F90185919591A5912D
:100BA000B4912E5F3F4F39832883DF91CF91089511
:100BB000CF92DF92EF92FF928091170190911801EE
:100BC000E0911701F09118018281938190931801AF
:100BD00080931701E0911701F091180184819581AC
:100BE00003975CF4E0911701F091180115821482CB
:100BF000FF90EF90DF90CF900895E0911701F09172
:100C00001801848195810697D9F6E0911701F0913A
:100C10001801C684D784E088F1880E94C6026C154A
:100C20007D058E059F0560F2DDCF412C512C3201F0
:100C30004394EE24EA94FE2C01E010E043E0C42E3D
:100C4000D12CE0910801F091090184918093B807BB
:100C50003196F0930901E0930801282F30E0220F2C
:100C6000331FF901E453FF4F459154914F935F9324
:100C700008950E941B048091B807877090E00E943D
:100C8000FA03FC0180819181909307018093060112
:100C9000D8CF0E94C605BC01809106019091070142
:100CA0000E94E2099093070180930601CACF0E9437
:100CB0007305C7CFE0910601F09107018081918112
:100CC0009093070180930601BCCF877066E071E0C6
:100CD00090E00E9403040E943704B3CF0E941B04DB
:100CE0000E94BC05082E000C990B9093070180937D
:100CF0000601A7CFC0910601D09107010E944104CF
:100D0000C80FD91F8A8190E0909307018093060154
:100D100098CF909006010E944704EC010E94410484
:100D20005C010E943704CA0DDB1D9A828ACF0E94A3
:100D30001B0487CF0E94BC0566E071E0082E000C02
:100D4000990B0E9403040E9437047BCF877066E0F2
:100D500071E090E00E9403040E94370472CF0E9469
:100D6000A704009709F46DCFFC01808191819093D5
:100D700007018093060165CF0E94A704009709F43C
:100D800060CFFC01808191819093070180930601DF
:100D900058CF0E941B040E94C605FC0180819181EE
:100DA00090930701809306014CCF0E941B040E9480
:100DB000C605FC018081082E000C990B9093070159
:100DC000809306013ECF0E94C6059093090180934F
:100DD000080137CF36CF0E94470420910601309199
:100DE0000701820F931F909307018093060129CF7B
:100DF0000E9447042091060130910701822393232A
:100E000090930701809306011CCF0E941B0410924F
:100E100007011092060115CF0E941B0410930701D1
:100E2000009306010ECF0E941B0482E090E0909395
:100E300007018093060105CF0E941B04D092070191
:100E4000C0920601FECE0E941B0484E090E09093C5
:100E5000070180930601F5CE80910601909107016C
:100E6000892B49F40E94470460E070E080E094E040
:100E70000E94A703E6CE0E9447046091060170918C
:100E800007010E942E0A7093070160930601D9CED4
:100E90000E94410421E030E0409106015091070199
:100EA0004817590711F420E030E0C9010E94860478
:100EB000C8CE0E9447042091060130910701821B91
:100EC000930B0E948604BDCE80910601909107018C
:100ED0000E948604B6CE80910601909107010E947F
:100EE0008604AFCE0E94BC05082E000C990B0E9410
:100EF000FA03FC01208131812F5F3F4F3183208332
:100F0000A0CE0E941B040E94BC05082E000C990B69
:100F10000E94FA03FC0180819181909307018093E4
:100F200006018FCE0E941B04E0910C01F0910D018F
:100F300080819181909307018093060182CE0E9467
:100F40001B04E0910C01F0910D018281938190933B
:100F500007018093060175CE0E941B04E0910C01ED
:100F6000F0910D0184819581909307018093060192
:100F700068CE0E941B04E0910C01F0910D01868166
:100F8000978190930701809306015BCE80910601C3
:100F90009091070191958195910990930701809314
:100FA00006014FCE0E94C6050E94B9044ACEF9013F
:100FB000E859FF4F859194910E94B90442CE0E9456
:100FC000BC05D82F0E94BC05C82F0E941B0420918D
:100FD0000A0130910B012250310930930B0120930B
:100FE0000A016C2FCC0F770B8D2F880F990BF9010D
:100FF000E81BF90B808191810E94A8030E94B9042B
:1010000020CE0E9447042091060130910701822BD7
:10101000932B909307018093060113CE0E944704FF
:1010200060910601709107010E942E0A90930701BA
:101030008093060106CE0E9447040090060102C07C
:10104000880F991F0A94E2F7909307018093060195
:10105000F8CD0E9447042091060130910701821BC0
:10106000930B9093070180930601EBCD0E942D0412
:101070000E944D04409104015091050160910601C8
:1010800070910701FC0180819181A281B381840F5D
:10109000951FA61FB71F8093040190930501A0938D
:1010A0000601B09307010E941104CBCD0E942D04CC
:1010B0000E944D04FC0180819181A281B381409105
:1010C0000401509105016091060170910701841B94
:1010D000950BA60BB70B181619061A061B062CF44F
:1010E0001093070100930601ACCD892B8A2B8B2B23
:1010F00029F0F0920701E0920601A3CD10920701BA
:10110000109206019ECD0E941B04109204011092C1
:10111000050110920601109207010E94110491CD61
:101120000E941B0440920401509205016092060146
:10113000709207010E94110484CD0E94550481CD54
:101140000E94C605EC010E941B0444E050E0BE0171
:1011500084E091E00E940A0A0E94110472CD0E946C
:101160001B048091B807877090E00E94FA03FC018D
:1011700080819181A281B3818093040190930501C4
:10118000A0930601B09307010E9411045ACD0E945A
:101190002D048091B807877090E00E94FA03409177
:1011A0000401509105016091060170910701FC0155
:1011B00040835183628373830E94370442CD0E942F
:1011C0001B040E94C6050E94DC09909307018093CE
:1011D000060137CD0E94370434CD0E944104EC0152
:1011E000892B39F460E070E082E090E00E94A70370
:1011F00028CD0E94AF052091060130910701C80F4C
:10120000D91F398328830E9437041BCD0E94C6054D
:1012100020910601FC0120830E94370412CD0E9418
:10122000C6052091060130910701FC01318320831E
:101230000E94370406CD0E94C60520910601309118
:101240000701FC01318320830E943704FACC0E94FD
:101250001B040E9473050E943704F3CCCF93DF93E5
:10126000C1E1D1E087E996E09B878A8781EB91E035
:101270000E94DC099F838E838EE890E00E94FB0928
:1012800090930F0180930E019C012E5F3F4F30938E
:101290000B0120930A01EE81FF812E813F81338370
:1012A0002283EE81FF819587848783EC94E0DF9130
:1012B000CF910C94B90408950E9441042091060135
:1012C00030910701FC01358324830C94D8050497E1
:1012D000FC018181881F8827881F90E0089504976A
:1012E000FC01808191819F77089521E08F319207E1
:1012F000D0F027E0863C9207B0F4FC0134972081BF
:10130000318137FD10C04FE151E0FA01349760811F
:1013100071817F776115710531F08417950731F080
:10132000460F571FF2CF80E090E008953068318378
:10133000208381E090E00895CF93DF939C018FE1BB
:1013400091E0B9016C5F7F4FFC013497408151817E
:101350005F774115510559F10280F381E02DEF2BA4
:1013600019F52417350729F146175707E8F0DA0170
:10137000A21BB30BFC01EB51F140EE0FFF1F67E91D
:1013800076E0EB01C41BD50BCE17DF0720F49C01E0
:101390008A0F9B1F02C0280F391FF9013497B183B0
:1013A000A0831382128205C0840F951FCDCF80E0E9
:1013B00090E0DF91CF910895FC013296649170E046
:1013C0000C946D03CF93DF93EC01CB01FB013296BC
:1013D000E491EC9F9001ED9F300D1124B9016E5FF7
:1013E0007F4F0E946D03009719F0FC01D183C083E9
:1013F000DF91CF9108956FEF74E00C94E2090E94A1
:101400002E0978940E94150680E090E00895F894E3
:101410000C94640AFB01DC0102C005900D9241505E
:101420005040D8F70895DC0101C06D934150504001
:10143000E0F70895AA1BBB1B51E107C0AA1FBB1F01
:10144000A617B70710F0A61BB70B881F991F5A9550
:10145000A9F780959095BC01CD01089597FB072EC3
:1014600016F4009407D077FD09D00E941A0A07FCF1
:1014700005D03EF4909581959F4F089570956195A4
:101480007F4F0895A1E21A2EAA1BBB1BFD010DC0C0
:10149000AA1FBB1FEE1FFF1FA217B307E407F50724
:1014A00020F0A21BB30BE40BF50B661F771F881F00
:1014B000991F1A9469F760957095809590959B0196
:0C14C000AC01BD01CF010895F894FFCFEE
:00000001FF
