:100000000C9434000C943E000C943E000C943E0082
:100010000C943E000C943E000C943E000C943E0068
:100020000C943E000C943E000C943E000C943E0058
:100030000C943E000C943E000C943E000C943E0048
:100040000C943E000C943E000C943E000C943E0038
:100050000C943E000C943E000C943E000C943E0028
:100060000C943E000C943E0011241FBECFEFD8E04C
:10007000DEBFCDBF0E94A1000C94D1000C94000003
:10008000AF92BF92CF92DF92EF92FF920F931F93A6
:10009000CF93DF93CDB7DEB728970FB6F894DEBFC6
:1000A0000FBECDBF19821A821B821C821D821E8246
:1000B0001F8218861BC029813A814B815C816D812A
:1000C0007E818F819885A1E00E94C500A22EB32E6B
:1000D000C42ED52EE62EF72E082F192FA982BA820C
:1000E000CB82DC82ED82FE820F831887A980BA80E2
:1000F000CB80DC80ED80FE800F8118852A2D3B2D82
:100100004C2D5D2D6E2D7F2D802F912F2F3F334D48
:1001100040435105610571058105910561F25CF26D
:1001200028960FB6F894DEBF0FBECDBFDF91CF91FA
:100130001F910F91FF90EF90DF90CF90BF90AF9005
:100140000895CF93DF93CDB7DEB784E290E024E249
:1001500030E0F90120812062FC01208385E290E0FB
:1001600025E230E0F90120812062FC0120830E9419
:10017000400085E290E025E230E0F90120812F7D0A
:10018000FC0120830E944000E9CF0024A7FD0094D9
:100190002A0F301D401D501D601D701D801D901DBB
:0601A0000895F894FFCF62
:00000001FF
