:100000000C9434000C943E000C943E000C943E0082
:100010000C943E000C943E000C943E000C943E0068
:100020000C943E000C943E000C943E000C943E0058
:100030000C943E000C943E000C943E000C943E0048
:100040000C943E000C943E000C943E000C943E0038
:100050000C943E000C943E000C943E000C943E0028
:100060000C943E000C943E0011241FBECFEFD8E04C
:10007000DEBFCDBF0E9467000C948B000C94000083
:10008000CF93DF9300D000D0CDB7DEB71A821982AC
:1000900012C01C821B8205C08B819C8101969C83AF
:1000A0008B838B819C81883E9340B4F389819A81B4
:1000B00001969A83898389819A8180389C404CF388
:1000C0000F900F900F900F90DF91CF910895CF93E5
:1000D000DF93CDB7DEB784E290E024E230E0F901AF
:1000E00020812062FC01208385E290E025E230E05F
:1000F000F90120812062FC0120830E94400085E2FA
:1001000090E025E230E0F90120812F7DFC01208381
:0A0110000E944000E9CFF894FFCFF1
:00000001FF
