:100000000C9434000C9446000C9446000C9446006A
:100010000C9446000C9446000C9446000C94460048
:100020000C9446000C9446000C9446000C94460038
:100030000C9446000C9446000C9446000C94460028
:100040000C9446000C9446000C9446000C94460018
:100050000C9446000C9446000C9446000C94460008
:100060000C9446000C94460011241FBECFEFD8E03C
:10007000DEBFCDBF21E0A0E0B1E001C01D92A43001
:10008000B207E1F70E94C6000C942C010C9400000A
:10009000CF93DF93CDB7DEB760970FB6F894DEBF8E
:1000A0000FBECDBF69877A878B879C872D873E8758
:1000B0004F87588B81E090E0A0E0B0E089839A837D
:1000C000AB83BC831D821E821F8218861DC02981BE
:1000D0003A814B815C8189859A85AB85BC85BC0161
:1000E000CD010E940201DC01CB0189839A83AB839D
:1000F000BC838D819E81AF81B8850196A11DB11D04
:100100008D839E83AF83B8872D813E814F81588533
:100110008D859E85AF85B889281739074A075B0703
:10012000B0F289819A8160960FB6F894DEBF0FBE57
:10013000CDBFDF91CF910895CF93DF9300D000D052
:10014000CDB7DEB781E090E0A0E0B0E089839A838C
:10015000AB83BC830BC089819A81AB81BC81019642
:10016000A11DB11D89839A83AB83BC8389819A8148
:10017000AB81BC818130944DA043B10564F30F90F5
:100180000F900F900F90DF91CF910895CF93DF9351
:10019000CDB7DEB784E290E0909303018093020133
:1001A00085E290E09093010180930001809102012B
:1001B000909103012091020130910301F901208106
:1001C0002062FC0120838091000190910101209127
:1001D000000130910101F90120812062FC0120839E
:1001E0000E949C00809100019091010120910001EA
:1001F00030910101F90120812F7DFC0120830E94B3
:100200009C00E1CFDB018F939F930E941201BF916D
:10021000AF91A29F800D911DA39F900DB29F900D55
:10022000112408950E941D01A59F900DB49F900D6B
:10023000A49F800D911D11240895A29FB001B39F2A
:10024000C001A39F700D811D1124911DB29F700DDF
:0C025000811D1124911D0895F894FFCF2A
:00000001FF
