:100000000C9434000C9446000C9446000C9446006A
:100010000C9446000C9446000C9446000C94460048
:100020000C9446000C9446000C9446000C94460038
:100030000C9446000C9446000C9446000C94460028
:100040000C9446000C9446000C9446000C94460018
:100050000C9446000C9446000C9446000C94460008
:100060000C9446000C94460011241FBECFEFD8E03C
:10007000DEBFCDBF21E0A0E0B1E001C01D92AC30F9
:10008000B207E1F70E9448000C94C0000C940000F5
:10009000AF92BF92CF92DF92EF92FF920F931F9396
:1000A000CF93DF93CDB7DEB784E290E09093030166
:1000B0008093020185E290E090930101809300011A
:1000C000809102019091030120910201309103017E
:1000D000F90120812062FC012083A0900401B090EE
:1000E0000501C0900601D0900701E0900801F09052
:1000F000090100910A0110910B012A2D3B2D4C2D75
:100100005D2D6E2D7F2D802F912F203A3648414056
:100110005105610571058105910589F5109204016C
:100120001092050110920601109207011092080129
:100130001092090110920A0110920B0180910001A6
:10014000909101012091000130910101F90120817C
:10015000222F30E020723327232B41F4209100011D
:1001600030910101F9012081206207C02091000136
:1001700030910101F90120812F7DFC012083ADCF59
:04018000F894FFCF21
:00000001FF
