:100000000C9434000C9446000C9446000C9446006A
:100010000C9446000C9446000C9446000C94460048
:100020000C9446000C9446000C9446000C94460038
:100030000C9446000C9446000C9446000C94460028
:100040000C9446000C9446000C9446000C94460018
:100050000C9446000C9446000C9446000C94460008
:100060000C9446000C94460011241FBECFEFD8E03C
:10007000DEBFCDBF21E0A0E0B1E001C01D92AC30F9
:10008000B207E1F70E9448000C94C2000C940000F3
:1000900084E290E0909303018093020185E290E076
:1000A0009093010180930001259A00910401109121
:1000B0000501D0910601C0910701B0910801A091FE
:1000C0000901F0910A01F0900B0198014D2F5C2F6E
:1000D0006B2F7A2F8F2F9F2D203A364841405105A4
:1000E000610571058105910581F710920401109257
:1000F000050110920601109207011092080110925A
:10010000090110920A0110920B01E0910001F09197
:100110000101808185FD03C08081806202C08081F1
:100120008F7D80832091040130910501409106016B
:1001300050910701609108017091090180910A01B5
:1001400090910B01A1E00E94B6002093040130932E
:1001500005014093060150930701609308017093D5
:10016000090180930A0190930B019FCF0024A7FD02
:1001700000942A0F301D401D501D601D701D801DF4
:08018000901D0895F894FFCFD3
:00000001FF
