:100000000C9434000C9446000C9446000C9446006A
:100010000C9446000C9446000C9446000C94460048
:100020000C9446000C9446000C9446000C94460038
:100030000C9446000C9446000C9446000C94460028
:100040000C9446000C9446000C9446000C94460018
:100050000C9446000C9446000C9446000C94460008
:100060000C9446000C94460011241FBECFEFD8E03C
:10007000DEBFCDBF21E0A0E0B1E001C01D92A03BFA
:10008000B207E1F70E9448000C945F020C94000054
:10009000CF93DF93CDB7DEB783E290E09093A901D1
:1000A0008093A80184E290E090938B0180938A0171
:1000B00085E290E0909367018093660186E290E08C
:1000C00090937D0180937C0187E290E090935301AF
:1000D0008093520188E290E090932F0180932E014B
:1000E00089E290E090933101809330018AE290E0C0
:1000F00090938F0180938E018BE290E090930701A3
:100100008093060185E390E09093A1018093A00184
:1001100086E390E090931B0180931A0187E390E0BF
:1001200090937101809370018BE390E09093610153
:10013000809360018CE390E090938301809382012F
:100140008DE390E090939101809390018EE390E095
:1001500090934501809344018FE390E090933F0199
:1001600080933E0180E490E0909315018093140108
:1001700081E490E090936F0180936E0182E490E0BF
:1001800090932D0180932C0183E490E09093930150
:100190008093920184E490E090932B0180932A0154
:1001A00085E490E0909397018093960186E490E037
:1001B000909375018093740187E490E090933B01E4
:1001C00080933A0188E490E09093950180939401A4
:1001D0008AE490E090930D0180930C018BE490E011
:1001E00090934D0180934C018CE490E090938D01AD
:1001F00080938C018DE490E09093370180933601D9
:100200008EE490E0909333018093320180E590E09A
:1002100090936B0180936A0181E590E0909389014E
:100220008093880183E590E0909359018093580171
:1002300084E590E0909303018093020185E590E0CE
:10024000909355018093540187E590E09093A70126
:100250008093A6018DE590E09093870180938601BD
:100260008EE590E09093AF018093AE018FE590E032
:10027000909373018093720180E690E09093A301C4
:100280008093A20181E690E09093AD018093AC0150
:1002900084E690E09093A5018093A40186E690E027
:1002A00090931D0180931C0188E690E090936D016E
:1002B00080936C0189E690E090930B0180930A0192
:1002C0008BE690E09093AB018093AA018CE690E0DE
:1002D00090933501809334018DE690E090935F0117
:1002E00080935E018EE690E090939901809398014F
:1002F0008FE690E0909351018093500180E790E069
:10030000909317018093160188E790E090937B010A
:1003100080937A0189E790E0909363018093620172
:100320008AE790E090939D0180939C018BE790E099
:1003300090932101809320018CE790E090934101FC
:10034000809340018EE790E09093230180932201F7
:100350008FE790E0909313018093120180E890E082
:1003600090935B0180935A0181E890E090939F0104
:1003700080939E0182E890E09093770180937601CC
:1003800084E890E0909325018093240185E890E033
:10039000909365018093640186E890E090937F01DB
:1003A00080937E0187E890E090930501809304019B
:1003B00088E890E090934F0180934E0189E890E0A7
:1003C00090936901809368018AE890E090934B01D3
:1003D00080934A018BE890E0909339018093380133
:1003E00080EB90E090933D0180933C0181EB90E0A5
:1003F000909311018093100182EB90E0909327017C
:100400008093260183EB90E090934901809348010B
:1004100084EB90E0909309018093080186EB90E0D3
:10042000909319018093180188EB90E090930F014D
:1004300080930E0189EB90E090938101809380017D
:100440008AEB90E090931F0180931E018BEB90E06C
:1004500090938501809384018CEB90E0909301014F
:10046000809300018DEB90E09093470180934601CB
:1004700080EC90E0909379018093780181EC90E09A
:1004800090939B0180939A0182EC90E090935D01A0
:1004900080935C0184EC90E0909329018093280183
:1004A00085EC90E0909343018093420186EC90E0CC
:1004B0009093570180935601DF91CF910895F8945E
:0204C000FFCF6C
:00000001FF
