:100000000C9434000C9446000C9446000C9446006A
:100010000C9446000C9446000C9446000C94460048
:100020000C9446000C9446000C9446000C94460038
:100030000C9446000C9446000C9446000C94460028
:100040000C9446000C9446000C9446000C94460018
:100050000C9446000C9446000C9446000C94460008
:100060000C9446000C94460011241FBECFEFD8E03C
:10007000DEBFCDBF21E0A0E0B1E001C01D92A830FD
:10008000B207E1F70E94A0000C9447010C94000015
:10009000CF93DF93CDB7DEB760970FB6F894DEBF8E
:1000A0000FBECDBF69877A878B879C872D873E8758
:1000B0004F87588B81E090E0A0E0B0E089839A837D
:1000C000AB83BC831D821E821F8218861DC02981BE
:1000D0003A814B815C8189859A85AB85BC85BC0161
:1000E000CD010E941D01DC01CB0189839A83AB8382
:1000F000BC838D819E81AF81B8850196A11DB11D04
:100100008D839E83AF83B8872D813E814F81588533
:100110008D859E85AF85B889281739074A075B0703
:10012000B4F289819A81AB81BC81BC01CD0160961A
:100130000FB6F894DEBF0FBECDBFDF91CF9108950B
:10014000CF93DF93CDB7DEB784E290E090930101C7
:100150008093000185E290E090930701809306016F
:1001600080910001909101012091000130910101E5
:10017000F90120812062FC01208380910601909189
:1001800007012091060130910701F90120812062C9
:10019000FC012083109202011092030110920401CD
:1001A000109205018091020190910301A091040138
:1001B000B0910501803A9648A140B10551F51092E1
:1001C0000201109203011092040110920501809126
:1001D0000601909107012091060130910701F90174
:1001E0002081222F30E020723327232B41F42091ED
:1001F000060130910701F9012081206207C020919A
:10020000060130910701F90120812F7DFC01208337
:1002100013C08091020190910301A0910401B0915B
:1002200005010196A11DB11D809302019093030168
:10023000A0930401B0930501B5CFDB018F939F9389
:100240000E942D01BF91AF91A29F800D911DA39F90
:10025000900DB29F900D112408950E943801A59F22
:10026000900DB49F900DA49F800D911D11240895B1
:10027000A29FB001B39FC001A39F700D811D1124E7
:10028000911DB29F700D811D1124911D0895F89448
:02029000FFCF9E
:00000001FF
