:100000000C9434000C9446000C9446000C9446006A
:100010000C9446000C9446000C9446000C94460048
:100020000C9446000C9446000C9446000C94460038
:100030000C9446000C9446000C9446000C94460028
:100040000C9446000C9446000C9446000C94460018
:100050000C9446000C9446000C9446000C94460008
:100060000C9446000C94460011241FBECFEFD8E03C
:10007000DEBFCDBF21E0A0E0B1E001C01D92A23003
:10008000B207E1F70E94A0000C941E010C9400003E
:10009000CF93DF93CDB7DEB760970FB6F894DEBF8E
:1000A0000FBECDBF69877A878B879C872D873E8758
:1000B0004F87588B81E090E0A0E0B0E089839A837D
:1000C000AB83BC831D821E821F8218861DC02981BE
:1000D0003A814B815C8189859A85AB85BC85BC0161
:1000E000CD010E94F400DC01CB0189839A83AB83AC
:1000F000BC838D819E81AF81B8850196A11DB11D04
:100100008D839E83AF83B8872D813E814F81588533
:100110008D859E85AF85B889281739074A075B0703
:10012000B4F289819A81AB81BC81BC01CD0160961A
:100130000FB6F894DEBF0FBECDBFDF91CF9108950B
:10014000CF93DF9300D000D0CDB7DEB7109201017E
:10015000109200011A828FE08B8381E08C839A8158
:100160008B81981714F481E001C08FEF8C838A8112
:1001700089838981082E000C990BAA0BBB0B9C016B
:10018000AD0162E070E080E090E00E944800DC0198
:10019000CB019C018091000190910101820F931F7E
:1001A000909301018093000119828A81982F8C819C
:1001B000890F8A838A8189838981282F880F330B4D
:1001C0008B81482F880F550B8C81082E000C990BC2
:1001D000840F951F2817390761F60F900F900F9025
:1001E0000F90DF91CF910895DB018F939F930E9431
:1001F0000401BF91AF91A29F800D911DA39F900D0F
:10020000B29F900D112408950E940F01A59F900D9B
:10021000B49F900DA49F800D911D11240895A29F5D
:10022000B001B39FC001A39F700D811D1124911DCA
:10023000B29F700D811D1124911D0895F894FFCF78
:00000001FF
