:100000000C9434000C9446000C9446000C9446006A
:100010000C9446000C9446000C9446000C94460048
:100020000C9446000C9446000C9446000C94460038
:100030000C9446000C9446000C9446000C94460028
:100040000C9446000C9446000C9446000C94460018
:100050000C9446000C9446000C9446000C94460008
:100060000C9446000C94460011241FBECFEFD8E03C
:10007000DEBFCDBF21E0A0E0B1E001C01D92A43EF3
:10008000B207E1F70E94A0060C94CF090C9400007F
:10009000CF93DF93CDB7DEB760970FB6F894DEBF8E
:1000A0000FBECDBF69877A878B879C872D873E8758
:1000B0004F87588B81E090E0A0E0B0E089839A837D
:1000C000AB83BC831D821E821F8218861DC02981BE
:1000D0003A814B815C8189859A85AB85BC85BC0161
:1000E000CD010E945B09DC01CB0189839A83AB833C
:1000F000BC838D819E81AF81B8850196A11DB11D04
:100100008D839E83AF83B8872D813E814F81588533
:100110008D859E85AF85B889281739074A075B0703
:10012000B0F289819A8160960FB6F894DEBF0FBE57
:10013000CDBFDF91CF910895CF93DF9300D000D052
:10014000CDB7DEB71A8219821B822DC080919D0126
:1001500090919E01FC018081882F90E02B81022EDE
:10016000000C330B02C0959587952A95E2F78170B4
:100170009927892BA9F08B81082E000C990BAA0BCB
:10018000BB0B9C01AD0162E070E080E090E00E945A
:1001900048009C0189819A81820F931F9A838983E9
:1001A0008B818F5F8B838B81883084F21C8230C07F
:1001B0008091820190918301FC018081882F90E0E1
:1001C0002C81022E000C330B02C0959587952A9541
:1001D000E2F781709927892BC1F08C81082E000CE1
:1001E000990B0896092E000CAA0BBB0B9C01AD01C4
:1001F00062E070E080E090E00E9448009C0189810C
:100200009A81820F931F9A8389838C818F5F8C835D
:100210008C8182306CF289819A810F900F900F90BF
:100220000F90DF91CF910895CF93DF93CDB7DEB7D5
:100230008091B9019091BA012091B9013091BA0130
:10024000F90120812160FC012083DF91CF91089585
:10025000CF93DF931F92CDB7DEB789830E9414013D
:100260008091AF0199819817D9F4809110019091F4
:1002700011012091100130911101F90120812E7F8F
:10028000FC012083809110019091110120911001B7
:1002900030911101F90120812D7FFC0120835FC085
:1002A0008091470199819817D9F48091100190911C
:1002B00011012091100130911101F901208121607B
:1002C000FC01208380911001909111012091100177
:1002D00030911101F90120812D7FFC0120833FC065
:1002E0008091990199819817D9F48091100190918A
:1002F00011012091100130911101F901208121603B
:10030000FC01208380911001909111012091100136
:1003100030911101F90120812260FC0120831FC06E
:1003200080913E0199819817D1F4809110019091AC
:1003300011012091100130911101F90120812E7FCE
:10034000FC012083809110019091110120911001F6
:1003500030911101F90120812260FC0120838091FC
:10036000B6019091B7012091B6013091B701F90122
:100370002081622F2091C801422F50E021E030E01F
:1003800002C0220F331F4A95E2F720952623FC0175
:10039000208378940F90DF91CF910895CF93DF93CE
:1003A000CDB7DEB728970FB6F894DEBF0FBECDBF2E
:1003B00069837A838B839C8329813A814B815C8119
:1003C00080E89EE3DC010E94A109DC01CB0121E26F
:1003D00030E040E050E0BC01CD010E947F09DA012D
:1003E000C90189839A83AB83BC830BC089819A81BD
:1003F000AB81BC810197A109B10989839A83AB8341
:10040000BC8389819A81AB81BC81892B8A2B8B2B00
:1004100069F728960FB6F894DEBF0FBECDBFDF9107
:10042000CF910895CF93DF931F92CDB7DEB7898325
:100430008981882314F480E04BC089818830A4F43A
:1004400080913F0190914001FC018081482F89817A
:10045000282F880F330B81E090E002C0880F991F8E
:100460002A95E2F7842334C089818E30BCF48091D0
:10047000D8019091D901FC018081482F8981082EF3
:10048000000C990B9C012850310981E090E002C0DA
:10049000880F991F2A95E2F784231AC08981853134
:1004A000BCF48091A0019091A101FC018081482FB2
:1004B0008981082E000C990B9C012E50310981E096
:1004C00090E002C0880F991F2A95E2F7842300C0AC
:1004D0000F90DF91CF910895CF93DF931F92CDB707
:1004E000DEB789838091C6019091C70129812223BB
:1004F00041F02091C6013091C701F90120812068A7
:1005000007C02091C6013091C701F90120812F77E2
:10051000FC01208389818823A1F18091C6019091FB
:10052000C7012091C6013091C701F90120812160E6
:10053000FC0120838091C6019091C7012091C601E2
:100540003091C701F90120812260FC012083809154
:10055000C6019091C7012091C6013091C701F901F0
:1005600020812460FC0120838091C6019091C70105
:100570002091C6013091C701F90120812062FC0160
:1005800020830F90DF91CF910895CF93DF9300D018
:10059000CDB7DEB789836A8380915501909156016A
:1005A0002091550130915601F90120812F7DFC01E8
:1005B00020838091550190915601209155013091F1
:1005C0005601F90120812064FC01208380915501AE
:1005D000909156012091550130915601F9012081E9
:1005E0002F77FC012083898188301CF08981882342
:1005F0008CF180916D0190916E012A812223A1F0EE
:1006000020916D0130916E01F9012081622F2981C5
:10061000422F220F550B21E030E002C0220F331F82
:100620004A95E2F7262B14C020916D0130916E019E
:10063000F9012081622F2981422F220F550B21E0E1
:1006400030E002C0220F331F4A95E2F7209526239F
:10065000FC0120830F900F90DF91CF910895CF93ED
:10066000DF931F92CDB7DEB789838091C601909149
:10067000C701FC01808188230CF089C089818178C1
:1006800088231CF481508E6F8F5F813071F48091CC
:100690005501909156012091550130915601F90173
:1006A00020812160FC0120830DC080915501909133
:1006B00056012091550130915601F90120812E7F7C
:1006C000FC0120838981837888231CF481508C6FFE
:1006D0008F5F813071F48091550190915601209186
:1006E000550130915601F90120812260FC012083DF
:1006F0000DC0809155019091560120915501309186
:100700005601F90120812D7FFC01208389818778A2
:1007100088231CF48150886F8F5F813071F4809141
:100720005501909156012091550130915601F901E2
:1007300020812460FC0120830DC08091550190919F
:1007400056012091550130915601F90120812B7FEE
:10075000FC0120838091C6019091C7012091C601C0
:100760003091C701F90120812064FC012083000041
:100770008091C6019091C701FC018081882F90E093
:1007800080719927892BA1F30E949C000BC089815D
:10079000825F0E941202882319F081E090E002C07B
:1007A00080E090E00F90DF91CF910895CF93DF9399
:1007B00000D0CDB7DEB789836A83898188309CF504
:1007C0008091B6019091B7012A812223A1F0209156
:1007D000B6013091B701F9012081622F2981422FA2
:1007E000220F550B21E030E002C0220F331F4A9543
:1007F000E2F7262B14C02091B6013091B701F90120
:100800002081622F2981422F220F550B21E030E0F9
:1008100002C0220F331F4A95E2F720952623FC01E0
:10082000208380E03CC089818E30CCF58091B2017C
:100830009091B3012A812223B9F02091B201309125
:10084000B301F9012081622F2981022E000C330BA4
:10085000A9014850510921E030E002C0220F331FA6
:100860004A95E2F7262B17C02091B2013091B301CF
:10087000F9012081622F2981022E000C330BA9017E
:100880004850510921E030E002C0220F331F4A9541
:10089000E2F720952623FC01208380E000C00F9022
:1008A0000F90DF91CF910895CF93DF9300D0CDB714
:1008B000DEB789836A838981883080F580910C0155
:1008C00090910D012A81222399F020910C01309101
:1008D0000D01F9012081622F2981422F50E021E092
:1008E00030E002C0220F331F4A95E2F7262B13C0D7
:1008F00020910C0130910D01F9012081622F298195
:10090000422F50E021E030E002C0220F331F4A9511
:10091000E2F720952623FC01208371C089818E3067
:10092000B0F580918601909187012A812223B1F050
:100930002091860130918701F9012081622F298160
:10094000222F30E0A9014850510921E030E002C0D7
:10095000220F331F4A95E2F7262B16C020918601FD
:1009600030918701F9012081622F2981222F30E007
:10097000A9014850510921E030E002C0220F331F85
:100980004A95E2F720952623FC01208338C089810F
:100990008531A8F580913A0190913B012A8122236B
:1009A000B1F020913A0130913B01F9012081622F91
:1009B0002981222F30E0A9014E50510921E030E079
:1009C00002C0220F331F4A95E2F7262B16C0209152
:1009D0003A0130913B01F9012081622F2981222FB8
:1009E00030E0A9014E50510921E030E002C0220F51
:1009F000331F4A95E2F720952623FC0120830F90B0
:100A00000F90DF91CF910895CF93DF931F92CDB7D1
:100A1000DEB789838981883008F041C080910C015C
:100A200090910D0120910C0130910D01F90120816F
:100A3000222F30E04981442F50E002C035952795A0
:100A40004A95E2F721703327232B99F420910C016A
:100A500030910D01F9012081622F2981422F50E050
:100A600021E030E002C0220F331F4A95E2F7262B27
:100A700013C020910C0130910D01F9012081622FEA
:100A80002981422F50E021E030E002C0220F331FC5
:100A90004A95E2F720952623FC01208399C089819D
:100AA0008E3008F049C08091860190918701209195
:100AB000860130918701F9012081222F30E04981A0
:100AC000442F50E04850510902C0359527954A956A
:100AD000E2F721703327232BB1F420918601309166
:100AE0008701F9012081622F2981222F30E0A9019D
:100AF0004850510921E030E002C0220F331F4A95CF
:100B0000E2F7262B16C02091860130918701F9016A
:100B10002081622F2981222F30E0A90148505109FC
:100B200021E030E002C0220F331F4A95E2F7209502
:100B30002623FC0120834CC08981853108F048C000
:100B400080913A0190913B0120913A0130913B0113
:100B5000F9012081222F30E04981442F50E04E508E
:100B6000510902C0359527954A95E2F72170332740
:100B7000232BB1F420913A0130913B01F9012081FE
:100B8000622F2981222F30E0A9014E50510921E026
:100B900030E002C0220F331F4A95E2F7262B16C021
:100BA00020913A0130913B01F9012081622F298186
:100BB000222F30E0A9014E50510921E030E002C05F
:100BC000220F331F4A95E2F720952623FC0120834C
:100BD0000F90DF91CF910895CF93DF93CDB7DEB71C
:100BE00028970FB6F894DEBF0FBECDBF9C838B83D2
:100BF0008091B6019091B7012091B6013091B70173
:100C0000F90120812064FC01208382E089831A821B
:100C100056C08981282F880F330B8B819C81B901A5
:100C20000E946B091816190654F580914D01909198
:100C30004E0120914D0130914E01F9012081622F2A
:100C40002A81422F220F550B21E030E002C0220FF3
:100C5000331F4A95E2F7262BFC0120838981282F38
:100C6000880F330B8B819C81B9010E946B099C0119
:100C70008B819C81821B930B9C838B831AC08091F8
:100C80004D0190914E0120914D0130914E01F9019D
:100C90002081622F2A81422F220F550B21E030E064
:100CA00002C0220F331F4A95E2F720952623FC014C
:100CB00020838981880F89838A818F5F8A838A81D3
:100CC00088300CF4A6CF80913501909136012091A7
:100CD000350130913601F90120812068FC01208323
:100CE0008091350190913601209135013091360186
:100CF000F90120812160FC012083809135019091D0
:100D000036012091350130913601F90120812260B0
:100D1000FC0120838091C0019091C1012091C0010C
:100D20003091C101F90120812160FC0120832896C6
:100D30000FB6F894DEBF0FBECDBFDF91CF910895FF
:100D4000CF93DF93CDB7DEB783E290E09093D901E4
:100D50008093D80184E290E09093B3018093B20134
:100D600085E290E0909387018093860186E290E08F
:100D70009093A1018093A00187E290E090936E018F
:100D800080936D0188E290E090933B0180933A015B
:100D900089E290E09093400180933F018AE290E0E5
:100DA0009093B7018093B6018BE290E090930D0190
:100DB00080930C0185E390E09093D0018093CF0164
:100DC00086E390E0909322018093210187E390E0F5
:100DD00090939201809391018BE390E090937D0139
:100DE00080937C018CE390E09093A9018093A8010B
:100DF0008DE390E09093BA018093B9018EE390E087
:100E000090935B0180935A018FE390E0909354019B
:100E10008093530180E490E090931B0180931A012A
:100E200081E490E09093900180938F0182E490E0C0
:100E3000909339018093380183E490E09093BD0151
:100E40008093BC0184E490E0909336018093350157
:100E500085E490E09093C1018093C00186E490E026
:100E6000909396018093950187E490E090934E01D2
:100E700080934D0188E490E09093BF018093BE0180
:100E80008AE490E090931301809312018BE490E048
:100E900090936401809363018CE490E09093B5019A
:100EA0008093B4018DE490E09093460180934501D6
:100EB0008EE490E0909342018093410180E590E0C0
:100EC00090938B0180938A0181E590E09093B1012A
:100ED0008093B00183E590E0909374018093730157
:100EE00084E590E0909308018093070185E590E008
:100EF0009093700180936F0187E590E09093D70104
:100F00008093D6018DE590E09093AE018093AD0182
:100F10008EE590E09093E2018093E1018FE590E00F
:100F2000909394018093930180E690E09093D20196
:100F30008093D10181E690E09093DD018093DC0104
:100F400084E690E09093D5018093D40186E690E00A
:100F5000909325018093240188E690E090938D0181
:100F600080938C0189E690E09093110180931001A9
:100F70008BE690E09093DB018093DA018CE690E0C1
:100F800090934401809343018DE690E090937B0120
:100F900080937A018EE690E09093C3018093C20122
:100FA0008FE690E090936C0180936B0180E790E076
:100FB00090931E0180931D0188E790E090939E011D
:100FC00080939D0189E790E0909383018093820153
:100FD0008AE790E09093C7018093C6018BE790E089
:100FE00090932901809328018CE790E0909356011B
:100FF000809355018EE790E090932C0180932B0114
:101000008FE790E0909319018093180180E890E0B9
:10101000909376018093750181E890E09093CA01E6
:101020008093C90182E890E09093980180939701A2
:1010300084E890E090932E0180932D0185E890E064
:10104000909385018093840186E890E09093A501B8
:101050008093A40187E890E090930A0180930901AE
:1010600088E890E0909367018093660189E890E0BA
:1010700090938901809388018AE890E090936201BF
:10108000809361018BE890E090934B0180934A013B
:1010900080EB90E09093500180934F0181EB90E0C2
:1010A000909317018093160182EB90E090933001AA
:1010B00080932F0183EB90E090935F0180935E011A
:1010C00084EB90E090930F0180930E0186EB90E00B
:1010D0009093200180931F0188EB90E0909315017D
:1010E0008093140189EB90E09093A7018093A6016F
:1010F0008AEB90E090932701809326018BEB90E0A0
:101100009093AC018093AB018CEB90E0909306013F
:10111000809305018DEB90E090935D0180935C01DD
:1011200080EC90E090939B0180939A0181EC90E099
:101130009093C5018093C40182EC90E09093780174
:101140008093770184EC90E0909333018093320197
:1011500085EC90E0909359018093580186EC90E0E3
:1011600090937201809371011092AF0181E080939E
:10117000470182E08093990183E080933E011092C1
:10118000520181E08093AA0182E08093510183E0C3
:101190008093A20184E08093CE0185E080933401A6
:1011A00086E080939F0187E08093790188E08093B7
:1011B000370189E0809304018AE0809357018BE036
:1011C0008093E0018CE080936A018DE0809381013F
:1011D0008EE080937E0182E080937F0183E08093A4
:1011E000030184E08093000185E08093020186E0A2
:1011F0008093D30187E08093230188E08093CB0123
:1012000089E080933D018AE0809369018BE08093BF
:1012100080018CE08093DF018DE080934C018EE0B3
:101220008093CC018FE08093CD0180E180933101E8
:1012300081E180933C0182E18093DE0183E1809330
:101240001C0184E180930B0185E180939C0186E180
:101250008093E30187E18093490188E180938E01C7
:1012600089E18093A3018AE18093650182E0809304
:10127000C80183E080932A011092010181E08093EC
:10128000600181E0809368011092BB0181E080934E
:1012900048011092B80180916001682F8DE00E9492
:1012A000D60364EF71E080E090E00E94CE018DE013
:1012B0000E940405F6CFDB018F939F930E94A10942
:1012C000BF91AF91A29F800D911DA39F900DB29FE2
:1012D000900D1124089597FB072E16F4009407D063
:1012E00077FD09D00E94AC0907FC05D03EF490952B
:1012F00081959F4F0895709561957F4F0895A1E264
:101300001A2EAA1BBB1BFD010DC0AA1FBB1FEE1F7F
:10131000FF1FA217B307E407F50720F0A21BB30BCA
:10132000E40BF50B661F771F881F991F1A9469F746
:1013300060957095809590959B01AC01BD01CF01A2
:1013400008950E94C009A59F900DB49F900DA49F81
:10135000800D911D11240895AA1BBB1B51E107C0EC
:10136000AA1FBB1FA617B70710F0A61BB70B881F35
:10137000991F5A95A9F780959095BC01CD010895C4
:10138000A29FB001B39FC001A39F700D811D1124C6
:10139000911DB29F700D811D1124911D0895F89427
:0213A000FFCF7D
:00000001FF
