:100000000C9434000C943E000C943E000C943E0082
:100010000C943E000C943E000C943E000C943E0068
:100020000C943E000C943E000C943E000C943E0058
:100030000C943E000C943E000C943E000C943E0048
:100040000C943E000C943E000C943E000C943E0038
:100050000C943E000C943E000C943E000C943E0028
:100060000C943E000C943E0011241FBECFEFD8E04C
:10007000DEBFCDBF0E9440000C947A000C940000BB
:10008000259A85B115B8D0E0C0E0B0E0A0E0F0E07E
:10009000F12C00E010E02D2F3C2F4B2F5A2F6F2F0B
:1000A0007F2DC801A1E00E946E00D22FC32FB42F74
:1000B000A52FF62FF72E8C01203A364841405105E6
:1000C000610571058105910531F72D9903C085B151
:1000D000806202C085B180E085B9D5CF0024A7FD3C
:1000E00000942A0F301D401D501D601D701D801D85
:0800F000901D0895F894FFCF64
:00000001FF
